S0100000377365676D656E742E73726563EA
S113000071C000008EC000008CC000008AC00000D7
S113001088C0000086C0000084C0000082C00000C8
S113002080C000007EC000007CC000007AC00000D8
S113003078C0000076C0000074C0000072C00000E8
S113004070C00000AFC200006CC000006AC00000B5
S113005068C0000066C0000064C0000062C0000008
S113006060C000005EC000005CC000005AC0000018
S113007058C00000AAC0000054C0000052C00000D4
S113008050C000004EC000004CC000004AC0000038
S113009048C0000046C0000044C0000042C0000048
S11300A040C000003EC00000A8C200003AC00000EA
S11300B038C0000036C0000034C0000032C0000068
S11300C030C000002EC000002CC000002AC0000078
S11300D028C0000026C0000024C0000022C0000088
S11300E020C0000011241FBECFEFD1E2DEBFCDBF80
S11300F000E00CBF12E0A0E0B2E0EAE5FAE000E0C4
S11301000BBF02C007900D92A23BB107D9F722E0C2
S1130110A2EBB2E001C01D92A03CB207E1F799D274
S11301209AC46ECFE7E0F1E080818F77808383B358
S1130130816083BBECE7F0E0808187648083EBE738
S1130140F0E0808188608083808185608083EAE735
S1130150F0E080818F6A808384B3816084BB0895DA
S1130160EAE7F0E080818064808380917A0086FDF4
S1130170FCCF0895609178007091790080E090E060
S11301806AD320E030E048E452E4F3D320E030E0E6
S113019040E85AE3EED320E030E048EC52E4E9D3FF
S11301A020E030E04AEF53E458D220E030E040E26F
S11301B051E4B8D26093B4027093B5028093B6024E
S11301C09093B70217D3CB0108951F920F920FB6E5
S11301D00F9211240BB60F922F933F934F935F937B
S11301E06F937F938F939F93AF93BF93EF93FF93FB
S11301F0609178007091790080E090E02CD3609356
S1130200B8027093B9028093BA029093BB02FF9133
S1130210EF91BF91AF919F918F917F916F915F917A
S11302204F913F912F910F900BBE0F900FBE0F90E7
S11302301F901895E1E8F0E080818A608083109235
S11302408500109284008FE097E290938900809358
S11302508800EFE6F0E0808182608083E1EAF0E0EC
S113026080818C60808381E19AE79093A9008093D8
S1130270A800E2E7F0E080818260808378940895AA
S113028084B1876084B980B38F6080BB85B1887F77
S113029085B981B38F6081BB8FEF81B982B908952D
S11302A00F931F93CF93DF93AC01EC01D695C795C1
S11302B0D695C795D695C7959E01A5ECB0E2BCD35B
S11302C0FC01F295E295EF70EF27FF70EF2728EE1F
S11302D033E0E29FC001E39F900DF29F900D112443
S11302E09A01281B390B3695279536952795ABE748
S11302F0B4E1A2D3EC01D695C7959A01369527951A
S11303003695279599D39C013695279564E6629F87
S1130310C001639F900D11249A01281B390BADEC89
S1130320BCEC8AD38C0116950795169507951695FE
S113033007959A0181D39695879596958795969575
S113034087959C01220F331F880F991F880F991FCF
S1130350880F991F820F931F9A01281B390BC9011B
S113036020910002309101022430310591F02330B4
S1130370310539F02230310539F02130310539F0B9
S113038008C0802F912F05C08C2F9D2F02C08E2F67
S11303909F2FDF91CF911F910F910895CF93DF93FA
S11303A0CDB7DEB7C05CD1090FB6F894DEBF0FBE7F
S11303B0CDBF20EBE2E0F2E0DE01519601900D9218
S11303C02A95E1F7803127E29207B8F41FC0FC01B7
S11303D0E05BFF4FEE0FFF1F41E050E04C0F5D1F4D
S11303E0E40FF51F20893189FC01EE0FFF1FE40F94
S11303F0F51F31832083019602C080E090E08830AD
S113040091052CF381B3807F81BB9BC049DF21B36D
S11304102F6021BB20E030E01CC0FC01EE0FFF1F69
S1130420EE0FFF1FEE0FFF1FE20FF31FEE0FFF1F74
S113043061E070E06C0F7D1FE60FF71F4089518962
S1130440F901EE0FFF1FE60FF71F518340832F5F63
S11304503F4F283031050CF3209100023091010206
S11304602130310501F5892B69F42F5F3F4F30931B
S113047001022093000281E090E09093BD028093FA
S1130480BC025FC081B38E7F81BB809100029091DA
S11304900102019690930102809300021092BD0222
S11304A01092BC024EC022303105E1F4892B69F46C
S11304B08091BC029091BD02019739F42F5F3F4FA8
S11304C030930102209300023CC081B38D7F81BB35
S11304D08091000290910102019690930102809311
S11304E000022FC023303105E1F4892B69F4809197
S11304F0BC029091BD02019739F42F5F3F4F3093B6
S11305000102209300021DC081B38B7F81BB8091C7
S113051000029091010201969093010280930002DF
S113052010C02430310569F481B3877F81BB81E039
S113053090E090930102809300021092BD02109209
S1130540BC0285B18E7F85B980E090E01BC0FC01C0
S1130550EE0FFF1F21E030E02C0F3D1FE20FF31FD1
S113056020813181232B21F425B12B7F25B903C0B0
S113057025B1246025B925B1226025B925B12D7F87
S113058025B901968830910514F385B1816085B948
S1130590C054DF4F0FB6F894DEBF0FBECDBFDF915E
S11305A0CF9108951F920F920FB60F9211240BB69C
S11305B00F922F933F934F935F936F937F938F93F8
S11305C09F93AF93BF93EF93FF938091BE0290915B
S11305D0BF02E4DEFF91EF91BF91AF919F918F91A4
S11305E07F916F915F914F913F912F910F900BBE2F
S11305F00F900FBE0F901F9018951F920F920FB679
S11306000F9211240BB60F922F933F934F935F9346
S11306106F937F938F939F93AF93BF93EF93FF93C6
S11306209FDDA8DD9093BF028093BE02FF91EF91FE
S1130630BF91AF919F918F917F916F915F914F91F6
S11306403F912F910F900BBE0F900FBE0F901F90F4
S1130650189516DE67DDEEDDFFCF5058BB27AA27BD
S11306600ED04DC13ED130F043D120F031F49F3F44
S113067011F41EF433C10EF4E095E7FB29C1E92F10
S11306804FD180F3BA17620773078407950718F0F0
S113069071F49EF567C10EF4E0950B2EBA2FA02DD0
S11306A00B01B90190010C01CA01A0011124FF271B
S11306B0591B99F0593F50F4503E68F11A16F04016
S11306C0A22F232F342F4427585FF3CF4695379515
S11306D02795A795F0405395C9F77EF41F16BA0BDA
S11306E0620B730B840BBAF09150A1F0FF0FBB1F88
S11306F0661F771F881FC2F70EC0BA0F621F731FD1
S1130700841F48F4879577956795B795F7959E3F2D
S113071008F0B3CF9395880F08F09927EE0F9795BB
S1130720879508950CD0EBC0E3D040F0DAD030F0D8
S113073021F45F3F19F0CCC0511115C1CFC0F0D0E6
S113074098F39923C9F35523B1F3951B550BBB2794
S1130750AA2762177307840738F09F5F5F4F220F41
S1130760331F441FAA1FA9F333D00E2E3AF0E0E83A
S113077030D091505040E695001CCAF729D0FE2F86
S113078027D0660F771F881FBB1F26173707480718
S1130790AB07B0E809F0BB0B802DBF01FF279358CE
S11307A05F4F2AF09E3F510568F092C0DCC05F3F66
S11307B0ECF3983EDCF3869577956795B795F795B6
S11307C09F5FC9F7880F911D9695879597F90895AE
S11307D0E1E0660F771F881FBB1F6217730784074A
S11307E0BA0720F0621B730B840BBA0BEE1F88F759
S11307F0E095089504D06894B111B5C0089598D0D7
S113080088F09F5790F0B92F9927B751A0F0D1F0F5
S1130810660F771F881F991F1AF0BA95C9F712C07F
S1130820B13081F09FD0B1E008959CC0672F782F3C
S11308308827B85F39F0B93FCCF3869577956795EB
S1130840B395D9F73EF490958095709561957F4F57
S11308508F4F9F4F0895E89409C097FB3EF49095FD
S11308608095709561957F4F8F4F9F4F9923A9F085
S1130870F92F96E9BB279395F69587957795679514
S1130880B795F111F8CFFAF4BB0F11F460FF1BC058
S11308906F5F7F4F8F4F9F4F16C0882311F096E9EB
S11308A011C0772321F09EE8872F762F05C0662399
S11308B071F096E8862F70E060E02AF09A95660F52
S11308C0771F881FDAF7880F9695879597F908950B
S11308D097F99F6780E870E060E008959FEF80ECEF
S11308E0089500240A941616170618060906089592
S11308F000240A9412161306140605060895092EF8
S11309000394000C11F4882352F0BB0F40F4BF2B66
S113091011F460FF04C06F5F7F4F8F4F9F4F0895A6
S113092057FD9058440F551F59F05F3F71F047959C
S1130930880F97FB991F61F09F3F79F08795089581
S1130940121613061406551FF2CF4695F1DF08C0A0
S1130950161617061806991FF1CF869571056105BD
S113096008940895E894BB2766277727CB0197F965
S113097008950BD0C4CFB5DF28F0BADF18F0952363
S113098009F0A6CFABCF1124EECFCADFA0F3959F19
S1130990D1F3950F50E0551F629FF001729FBB2762
S11309A0F00DB11D639FAA27F00DB11DAA1F649F0E
S11309B06627B00DA11D661F829F2227B00DA11DC1
S11309C0621F739FB00DA11D621F839FA00D611D47
S11309D0221F749F3327A00D611D231F849F600D68
S11309E0211D822F762F6A2F11249F5750408AF0A1
S11309F0E1F088234AF0EE0FFF1FBB1F661F771F2D
S1130A00881F91505040A9F79E3F510570F060CF68
S1130A10AACF5F3FECF3983EDCF386957795679514
S1130A20B795F795E7959F5FC1F7FE2B880F911D4A
S1130A309695879597F90895A29FB001B39FC00139
S1130A40A39F700D811D1124911DB29F700D811DF6
S10D0A501124911D0895F894FFCFBE
S1130A5A0100010001000000000000000000000085
S1130A6A0000010001000100010001000000000073
S1130A7A0100010000000100000000000100000064
S1130A8A0000010000000100010000000000000055
S1130A9A0000010000000000010001000000000045
S1130AAA0100010000000000010000000000010034
S1130ABA0000010000000000000000000000010026
S1130ACA0000010001000100010001000000000013
S1130ADA0000010000000000000000000000000007
S1130AEA00000100000000000100000000000000F6
S1130AFA00000100000000000000000001000100E5
S1050B0A0000E5
S9030000FC
